:100000001DC100000C94B8090C94E9090C941A0A5B
:100010000C944B0A0C947C0A0C94AD0A0C94DE0AE6
:100020000C940F0B3CC100003AC1000038C1000025
:1000300036C1000034C1000032C1000030C10000F0
:100040002EC100002CC100002AC1000028C1000000
:1000500002C5000024C1000022C100000C944D0B19
:100060001EC1000086C70000BAC7000018C100000A
:1000700016C1000014C1000012C1000010C1000030
:100080000EC100000CC100000AC1000008C1000040
:1000900006C1000004C1000002C10000EFC2000060
:1000A000FEC00000FCC00000FAC00000F8C0000064
:1000B000F6C00000F4C00000F2C00000F0C0000074
:1000C000EEC00000ECC00000EAC00000E8C0000084
:1000D000E6C00000E4C00000E2C00000E0C0000094
:1000E000DEC0000092095C09640970097D099E095F
:1000F000AB09640C670C560C5A0C600C9E0C6B0C14
:100100006F0C750C790C7D0C830C870C8B0C9E0C82
:10011000910C950C990C00000A0B02090C0D0E08AD
:1001200007030401000000000000000000000000C0
:1001300000000000000000000000000000000000BF
:10014000000012111000000000000000000000007C
:10015000000000000000000000000000010210206C
:1001600020080810204010204080020102010804ED
:100170000201010204081020408080402010080481
:1001800002018004020180402010080402010804DA
:10019000020101020408102040800102040810201E
:1001A0004080050505050705080808080202020247
:1001B0000A0A080804040404010101010101010103
:1001C0000303030303030303040707070C0C0C0CCE
:1001D0000C0C0C0C020202020606060606060606B7
:1001E0000B0B0B0B0B0B0B0B00002000230026004E
:1001F00029002C002F00320000010000030106013D
:10020000090100002200250028002B002E003100EB
:10021000340002010000050108010B01000021006B
:10022000240027002A002D003000330001010000C7
:10023000040107010A019A022805210811241FBEA2
:10024000CFEFD1E2DEBFCDBF00E00CBF12E0A0E0F7
:10025000B2E0E0E0FBE100E00BBF02C007900D92CE
:10026000AA33B107D9F723E0AAE3B2E001C01D9297
:10027000A53DB207E1F712E0CCE3D2E000E006C012
:1002800022970109FE010BBF0E947A0DC633D107E8
:1002900080E00807A9F70E94410B0C947E0DB0CEB8
:1002A000DC01ED91FC910190F081E02D1994809199
:1002B0004002909141020197909341028093400245
:1002C000892B61F480EA9FE0909341028093400281
:1002D00081E090E090933B0280933A0280913A0251
:1002E00090913B020097A9F0019759F461E086E0F4
:1002F0000E94D80C82E090E090933B0280933A02F7
:10030000089560E086E00E94D80C10923B021092A3
:100310003A020895CF93DF93EC016FEF70E08FE125
:1003200093E0BEDF6D2F70E08FE193E0B9DFBE0197
:1003300077278FE193E0DF91CF91B2CF60914202B6
:100340007091430280914402909145022AE330E08B
:1003500040E050E00E94580DC901DCDF82E00E94BD
:100360000D0D0097A9F00197C9F510924602109261
:10037000470210924802109249020E94970B609324
:100380004A0270934B0280934C0290934D02089561
:100390000E94970B60934602709347028093480235
:1003A000909349028091460290914702A0914802A1
:1003B000B091490240914A0250914B0260914C0227
:1003C00070914D02841B950BA60BB70B80934202D4
:1003D00090934302A0934402B09345020895809104
:1003E0003C0290913D02A0913E02B0913F020197E4
:1003F000A109B10980933C0290933D02A0933E0273
:10040000B0933F02181619061A061B0674F1809164
:10041000420290914302A0914402B0914502883A71
:100420009146A105B1056CF480914202909143027E
:10043000A0914402B0914502880F991FAA1FBB1FCB
:1004400004C088EA91E6A0E0B0E080933C0290937B
:100450003D02A0933E02B0933F028DE00E940D0D3D
:1004600061E068278DE00C94D80C089520DFB7CFA9
:1004700061E086E00E949F0C60E082E00E949F0C99
:1004800061E08DE00E949F0CE1E8F0E080E1808374
:100490001092800021E020931C0380E991E090936A
:1004A0001E0380931D03909387008093860081E153
:1004B000808386E392E090931B0380931A0320933A
:1004C0006F0041E050E06EE971E080E0E1D626E0A7
:1004D00040E855E260E070E08FE193E0EAD48EE41A
:1004E00092E08FD368E072E08EE492E02BC641E0A8
:1004F00060E08EE492E04DD360914202709143023D
:1005000080914402909145022AE330E040E050E0BF
:100510000E94580DBA01A9012AE030E08EE492E071
:1005200070D66AE070E080E090E00E94BA0B8EE442
:1005300092E025C30F9300E024E044E167E28EE4FB
:1005400092E0B4D20F9108951092C70281E0809397
:10055000C5021092C40261E084E10E94D80C61E0FF
:1005600085E10E94D80CE9EBF0E080818E7F8083EA
:1005700080818D7F808388E48093B80085E48093B8
:10058000BC0008950F93413208F046C09091C70215
:100590009111FCCF92E09093C7020093C5029FEFA8
:1005A00090935A0210929F0240939E02FB0160EAD0
:1005B00072E0DB019A2F961B941718F491919D938A
:1005C000F9CF1092C6029091C602880F892B8093B2
:1005D000C6028091C402813041F41092C40280911D
:1005E000C6028093BB0085EC01C085EE8093BC0001
:1005F000222321F08091C7028230E1F380915A02D8
:100600008F3F61F080915A02803251F080915A02FE
:10061000803341F483E007C081E005C080E003C07F
:1006200082E001C084E00F910895613298F4209136
:10063000C702243089F460937C02FC018EE792E0CB
:10064000DC012A2F281B261718F421912D93F9CFAE
:1006500080E0089581E0089582E0089585ED80931B
:10066000BC008091BC0084FDFCCF1092C7020895AD
:1006700085EC8093BC001092C70208951F920F92E0
:100680000FB60F9211240BB60F922F933F934F93F7
:100690005F936F937F938F939F93AF93BF93EF93EA
:1006A000FF938091B900887F803609F49CC068F57B
:1006B000883209F45BC090F4803109F454C038F4F6
:1006C000882309F4F3C0883009F44DC0F2C08831A2
:1006D00009F44CC0803209F45DC0EBC0803409F4E9
:1006E00068C048F4803309F455C0883309F0E1C08C
:1006F00080935A02A7C0803509F44FC0883509F4A9
:100700005DC0883409F0D5C0D3C0883909F4C4C0AD
:10071000A8F4883709F467C038F4883609F463C050
:10072000803709F460C0C5C0883809F4B5C0803985
:1007300009F45FC0803809F0BCC05BC0803B09F49D
:1007400083C038F4803A09F466C0883A09F47CC062
:10075000B0C0803C09F4A4C0883C09F4A1C0883B27
:1007600009F487C0A6C08091C60210C090919F0274
:1007700080919E02981770F5E0919F0281E08E0FA4
:1007800080939F02F0E0E056FD4F80818093BB0094
:1007900085EC83C080935A028BC0E0919F0281E078
:1007A0008E0F80939F028091BB00F0E0E056FD4FDA
:1007B000808390919F0280919E026BC0E0919F0286
:1007C00081E08E0F80939F028091BB00F0E0E056A5
:1007D000FD4F80838091C50281116AC081E08093C2
:1007E000C40284EA5EC083E08093C70210925B0279
:1007F000CFCF80915B02803208F04EC0E0915B0267
:1008000081E08E0F80935B028091BB00F0E0E45AA0
:10081000FD4F8083BDCF80915B02803230F4E09148
:100820005B02F0E0E45AFD4F108218DF60915B023A
:1008300070E0E091C002F091C1028CE592E0199560
:1008400010925B0215DF35C084E08093C7021092DE
:100850007D0210927C02E091C202F091C3021995D0
:1008600080917C02811105C081E080937C0210920E
:100870007E02E0917D0281E08E0F80937D02F0E0A8
:10088000E258FD4F80818093BB0090917D02809162
:100890007C02981708F47CCF85E88093BC0009C0DF
:1008A00085EC8093BC001092C70203C010925A02DC
:1008B000D5DEFF91EF91BF91AF919F918F917F9185
:1008C0006F915F914F913F912F910F900BBE0F90C1
:1008D0000FBE0F901F9018958091F80290E0209124
:1008E000F902821B910908952091F9028091F80282
:1008F000281750F4E22FF0E0E650FD4F808190E0A1
:100900002F5F2093F90208958FEF9FEF0895E091F4
:10091000F9028091F802E81730F4F0E0E650FD4F5C
:10092000808190E008958FEF9FEF08950895CF9212
:10093000DF92EF92FF920F931F93CF93DF937C018F
:10094000CB018A012091D402222389F0EB016B01B3
:10095000C40ED51ECC15DD0561F06991D701ED916E
:10096000FC910190F081E02DC7011995F3CF642F20
:100970005CDEC801DF91CF911F910F91FF90EF9046
:10098000DF90CF900895CF93DF931F92CDB7DEB75E
:1009900069832091D4022223D1F02091D502203204
:1009A00040F021E030E0FC013383228380E090E0DE
:1009B00014C08091D602E82FF0E0E952FD4F9981F2
:1009C00090838F5F8093D6028093D50204C061E04C
:1009D000CE0101962ADE81E090E00F90DF91CF9169
:1009E0000895FC011382128248EE53E060E070E04B
:1009F000448355836683778386E192E09183808385
:100A000008951092F9021092F8021092D6021092F4
:100A1000D5029ACD81E08093D4026093F7021092C0
:100A2000D6021092D50208950F93062F21E040912F
:100A3000D50267ED72E08091F702A4DD1092D60234
:100A40001092D5021092D4020F91089561E0ECCF7C
:100A500088EC92E0C6CF1F920F920FB60F9211242E
:100A60000BB60F922F933F934F935F936F937F93A8
:100A70008F939F93AF93BF93EF93FF93E0911A03EC
:100A8000F0911B031995FF91EF91BF91AF919F9149
:100A90008F917F916F915F914F913F912F910F9027
:100AA0000BBE0F900FBE0F901F9018950F93FC0177
:100AB0001382128286E292E091838083648340876E
:100AC0002187028788E083870F9108951F93CF9332
:100AD000DF93EC01162F6C8188EC92E09BDFE091B4
:100AE000C802F091C9026B85612B0190F081E02D65
:100AF00088EC92E0199588EC92E0DF91CF911F91FC
:100B0000A5CF1F93CF93DF93EC01162F6460DEDF38
:100B100081E090E054D6612F6B7FCE01D7DF82E376
:100B200090E0DF91CF911F914AC61F93CF93DF933F
:100B3000EC01162FCBDF612FCE01DF91CF911F91FA
:100B4000E0CFEF92FF921F93CF93DF931F92CDB729
:100B5000DEB77C01162F607F642B4983E6DF80E1DE
:100B6000189FB00111244981642BC7010F90DF91B8
:100B7000CF911F91FF90EF90D8CF40E0E2CF61E09E
:100B8000FCDF80ED97E01BC662E0F7DF80ED97E0C9
:100B900016C6CF93DF93CDB7DEB728970FB6F8947C
:100BA000DEBF0FBECDBF28E0E0E0F2E0DE0111962F
:100BB00001900D922A95E1F7FC012185241710F48C
:100BC0004FEF420FFE013196E40FF11DE40FF11DCE
:100BD0002081260F2068622F28960FB6F894DEBF7A
:100BE0000FBECDBFDF91CF91C8CFFC016681262F0C
:100BF000246026836C60C1CF41E0A3DF81E090E0F8
:100C00000895CF93DF93EC0188EC92E0FADE1D8229
:100C10008985823010F098E09D839A85992329F088
:100C2000813019F48D8184608D8362E370E080E00F
:100C300090E0A0D56B85CE0149DF68EE73E080E0DF
:100C400090E098D560E3CE0170DF84E991E1B7D5FB
:100C500060E3CE016ADF84E991E1B1D560E3CE01C2
:100C600064DF86E990E0ABD560E2CE015EDF6D81A6
:100C70006062CE0182DF84E08E83CE01B6DFCE01DA
:100C80007EDF82E08F8366E0CE0177DFCE01DF91E9
:100C9000CF917ACFFC01818D228D90E0805C9F4FB7
:100CA000821B91098F7399270895FC01918D828D84
:100CB000981731F0828DE80FF11D858D90E0089531
:100CC0008FEF9FEF0895FC01918D828D981761F051
:100CD000828DDF01A80FB11D5D968C91928D9F5F73
:100CE0009F73928F90E008958FEF9FEF089588E1B2
:100CF00098E0892B39F080E090E0892B19F098D1A9
:100D0000811125C080E090E0892B41F080E090E0E7
:100D1000892B21F00E94000081111CC080E090E02E
:100D2000892B41F080E090E0892B21F00E940000A7
:100D3000811113C080E090E0892BA1F080E090E069
:100D4000892B81F00E94000081110AC008950E9441
:100D50000000D8CF0E940000E1CF0E940000EACF3F
:100D60000C9400000895FC01848DDF01A80FB11DD3
:100D7000A35ABF4F2C91848D90E001968F739927D1
:100D8000848FA689B7892C93A089B1898C918064BE
:100D90008C93938D848D981306C00288F389E02D7F
:100DA00080818F7D80830895CF93DF93EC01888DC0
:100DB0008823C1F0EA89FB89808185FD05C0A88967
:100DC000B9898C9186FD0EC00FB607FCF5CF8081E6
:100DD00085FFF2CFA889B9898C9185FFEDCFCE012F
:100DE000C2DFE8CFDF91CF910895CF92DF92FF92DB
:100DF0000F931F93CF93DF931F92CDB7DEB76C0194
:100E000081E0D60158968C9358975B969C915B979E
:100E10005C968C915C97981307C05096ED91FC916D
:100E20005197808185FD2DC0F601038D10E00F5F85
:100E30001F4F0F731127F02EF601848DF81210C08A
:100E40000FB607FCF9CFD6015096ED91FC91519762
:100E5000808185FFF1CFC601698385DF6981ECCF91
:100E6000838DE80FF11DE35AFF4F6083D6015B9637
:100E70000C935B975296ED91FC9153978081806221
:100E80000CC0D6015696ED91FC9157976083509611
:100E9000ED91FC91519780818064808381E090E0A6
:100EA0000F90DF91CF911F910F91FF90DF90CF9026
:100EB0000895BF92CF92DF92EF92FF92CF93DF938C
:100EC000EC016A017B01B22EE889F98982E0808316
:100ED000411581EE58076105710599F060E079E0F0
:100EE0008DE390E0A7019601C1D521503109410958
:100EF00051095695479537952795211580E1380773
:100F000090F0E889F989108260E874E88EE190E059
:100F1000A7019601ABD521503109410951095695D8
:100F2000479537952795EC85FD853083EE85FF85C0
:100F30002083188EEC89FD89B082EA89FB89808143
:100F400080618083EA89FB89808188608083EA8967
:100F5000FB89808180688083EA89FB8980818F7D1D
:100F60008083DF91CF91FF90EF90DF90CF90BF9083
:100F700008951F920F920FB60F9211240BB60F9285
:100F80002F938F939F93EF93FF93E0912F03F09113
:100F900030038081E0913503F091360382FD12C069
:100FA0009081809138038F5F8F732091390382176E
:100FB00051F0E0913803F0E0E15EFC4F958F8093B3
:100FC000380301C08081FF91EF919F918F912F9104
:100FD0000F900BBE0F900FBE0F901F9018951F9291
:100FE0000F920FB60F9211240BB60F922F933F93CF
:100FF0004F935F936F937F938F939F93AF93BF9321
:10100000EF93FF938FE193E0AEDEFF91EF91BF91FD
:10101000AF919F918F917F916F915F914F913F9190
:101020002F910F900BBE0F900FBE0F901F90189531
:101030008FE193E02FDE21E0892B09F420E0822F5D
:101040000895109222031092210388EE93E0A0E00D
:10105000B0E08093230390932403A0932503B093DF
:1010600026038EE292E09093200380931F0385EC89
:1010700090E090932C0380932B0384EC90E090936A
:101080002E0380932D0380EC90E0909330038093A7
:101090002F0381EC90E0909332038093310382EC34
:1010A00090E0909334038093330386EC90E0909328
:1010B000360380933503109238031092390310924F
:1010C0003A0310923B030895CF92DF92EF92FF9282
:1010D0000F931F93CF93DF936C017A01EB01E60E20
:1010E000F71E00E010E0CE15DF0561F06991D60132
:1010F000ED91FC910190F081E02DC6011995080F4A
:10110000191FF1CFC801DF91CF911F910F91FF906F
:10111000EF90DF90CF9008956115710581F0DB01AC
:101120000D900020E9F7AD0141505109461B570BC6
:10113000DC01ED91FC910280F381E02D199480E0B7
:1011400090E00895E9CFDC01ED91FC910190F081F0
:10115000E02D19948F929F92AF92BF92CF92DF921F
:10116000EF92FF920F931F93CF93DF93CDB7DEB72C
:10117000A1970FB6F894DEBF0FBECDBF7C01C42E81
:10118000E52FCB01D22E19A221E02D1510F02AE077
:10119000D22E8E010F5D1F4F8D2C912CA12CB12CC6
:1011A0006C2D7E2FA501940161D48C2DD29E8019C7
:1011B0001124015011098A3014F4805D01C0895C4A
:1011C000F8018083211531054105510521F0C22E1A
:1011D000E32FCA01E5CFB801C7019EDFA1960FB684
:1011E000F894DEBF0FBECDBFDF91CF911F910F915D
:1011F000FF90EF90DF90CF90BF90AF909F908F9037
:101200000895CF92DF92EF92FF920F931F93CF93A7
:10121000DF93EC016A017B012115310579F4E88146
:10122000F9810190F081E02D642FDF91CF911F9122
:101230000F91FF90EF90DF90CF9019942A303105F5
:10124000D9F477FF18C06DE27EDF8C014427552763
:10125000BA014C195D096E097F092AE0CE017ADFD7
:10126000800F911FDF91CF911F910F91FF90EF9011
:10127000DF90CF9008952AE0B701A601CE01DF915B
:10128000CF911F910F91FF90EF90DF90CF9062CFA1
:10129000883008F06CC0E82FF0E0EE0FFF1FE45438
:1012A000FC4F7183608390E0FC013197E730F105DA
:1012B00088F5EE58FF4F18C4809169008C7F842B0D
:1012C00080936900E89A089580916900440F551F42
:1012D000440F551F837F842B80936900E99A0895FA
:1012E0008091690074E0440F551F7A95E1F78F7C77
:1012F000842B80936900EA9A08958091690066E0E2
:10130000440F551F6A95E1F78F73842B8093690012
:10131000EB9A089580916A008C7F842B80936A00F9
:10132000EC9A089580916A00440F551F440F551F91
:10133000837F842B80936A00ED9A089580916A00E0
:1013400024E0440F551F2A95E1F78F7C842B80936E
:101350006A00EE9A089580916A0096E0440F551F46
:101360009A95E1F78F73842B80936A00EF9A089522
:101370001F920F920FB60F9211240BB60F922F935C
:101380003F934F935F936F937F938F939F93AF930D
:10139000BF93EF93FF938091C0039091C103892B7A
:1013A00029F0E091C003F091C1031995FF91EF91ED
:1013B000BF91AF919F918F917F916F915F914F916D
:1013C0003F912F910F900BBE0F900FBE0F901F906B
:1013D00018951F920F920FB60F9211240BB60F9211
:1013E0002F933F934F935F936F937F938F939F932D
:1013F000AF93BF93EF93FF938091C2039091C30388
:10140000892B29F0E091C203F091C3031995FF9154
:10141000EF91BF91AF919F918F917F916F915F916C
:101420004F913F912F910F900BBE0F900FBE0F90D9
:101430001F9018951F920F920FB60F9211240BB6A2
:101440000F922F933F934F935F936F937F938F935D
:101450009F93AF93BF93EF93FF938091C4039091B9
:10146000C503892B29F0E091C403F091C5031995B8
:10147000FF91EF91BF91AF919F918F917F916F916C
:101480005F914F913F912F910F900BBE0F900FBE28
:101490000F901F9018951F920F920FB60F92112464
:1014A0000BB60F922F933F934F935F936F937F935E
:1014B0008F939F93AF93BF93EF93FF938091C60356
:1014C0009091C703892B29F0E091C603F091C703DF
:1014D0001995FF91EF91BF91AF919F918F917F915E
:1014E0006F915F914F913F912F910F900BBE0F9095
:1014F0000FBE0F901F9018951F920F920FB60F926C
:1015000011240BB60F922F933F934F935F936F93DA
:101510007F938F939F93AF93BF93EF93FF938091AC
:10152000BC039091BD03892B29F0E091BC03F0919D
:10153000BD031995FF91EF91BF91AF919F918F914D
:101540007F916F915F914F913F912F910F900BBEC3
:101550000F900FBE0F901F9018951F920F920FB60D
:101560000F9211240BB60F922F933F934F935F93DB
:101570006F937F938F939F93AF93BF93EF93FF935B
:101580008091BE039091BF03892B29F0E091BE03A7
:10159000F091BF031995FF91EF91BF91AF919F918A
:1015A0008F917F916F915F914F913F912F910F900C
:1015B0000BBE0F900FBE0F901F9018951F920F92A9
:1015C0000FB60F9211240BB60F922F933F934F93A8
:1015D0005F936F937F938F939F93AF93BF93EF939B
:1015E000FF938091C8039091C903892B29F0E09162
:1015F000C803F091C9031995FF91EF91BF91AF9185
:101600009F918F917F916F915F914F913F912F911A
:101610000F900BBE0F900FBE0F901F9018951F924A
:101620000F920FB60F9211240BB60F922F933F9388
:101630004F935F936F937F938F939F93AF93BF93DA
:10164000EF93FF938091CA039091CB03892B29F0EC
:10165000E091CA03F091CB031995FF91EF91BF91EF
:10166000AF919F918F917F916F915F914F913F913A
:101670002F910F900BBE0F900FBE0F901F901895DB
:101680000895A8D0FDDF0E943802C7E7D6E00E9487
:1016900077022097E1F32BDBFACF1F920F920FB660
:1016A0000F9211242F933F938F939F93AF93BF93E8
:1016B0008091CD039091CE03A091CF03B091D00340
:1016C0003091CC0323E0230F2D3720F40196A11D88
:1016D000B11D05C026E8230F0296A11DB11D209360
:1016E000CC038093CD039093CE03A093CF03B0930C
:1016F000D0038091D1039091D203A091D303B091F4
:10170000D4030196A11DB11D8093D1039093D20300
:10171000A093D303B093D403BF91AF919F918F91C6
:101720003F912F910F900FBE0F901F9018953FB7CC
:10173000F8948091D1039091D203A091D303B091FA
:10174000D40326B5A89B05C02F3F19F00196A11D13
:10175000B11D3FBF6627782F892F9A2F620F711D09
:10176000811D911D42E0660F771F881F991F4A95C2
:10177000D1F70895CF92DF92EF92FF92CF93DF934C
:101780006B017C01D4DFEB01C114D104E104F1044D
:1017900079F06BD1CCDF6C1B7D0B683E7340A0F3FE
:1017A00081E0C81AD108E108F108C851DC4FECCF3C
:1017B000DF91CF91FF90EF90DF90CF90089582302E
:1017C000910538F0880F991F880F991F0597019789
:1017D000F1F70895789484B5826084BD84B5816002
:1017E00084BD85B5826085BD85B5816085BDEEE629
:1017F000F0E0808181608083E1E8F0E01082808108
:1018000082608083808181608083E0E8F0E0808175
:1018100081608083E1EBF0E0808184608083E0EB95
:10182000F0E0808181608083E1E9F0E08081826086
:101830008083808181608083E0E9F0E08081816045
:101840008083E1EAF0E08081826080838081816032
:101850008083E0EAF0E0808181608083E1E2F1E072
:10186000808182608083808181608083E0E2F1E01A
:10187000808181608083EAE7F0E0808184608083FA
:1018800080818260808380818160808380818068A4
:1018900080831092C100089590E0FC013197E231FD
:1018A000F10508F04BC0E758FF4F1EC18091800042
:1018B0008F7703C0809180008F7D80938000089592
:1018C00080918000877FF9CF84B58F7702C084B57F
:1018D0008F7D84BD08958091B0008F7703C0809183
:1018E000B0008F7D8093B0000895809190008F7735
:1018F00007C0809190008F7D03C080919000877F0A
:101900008093900008958091A0008F7707C0809108
:10191000A0008F7D03C08091A000877F8093A000EE
:101920000895809120018F7707C0809120018F7DDD
:1019300003C080912001877F809320010895CF9379
:10194000DF9390E0FC01E45AFE4F2491FC01EE5538
:10195000FE4F8491882349F190E0880F991FFC0184
:10196000E45EFD4FA591B4918E5F9D4FFC01C59142
:10197000D4919FB7611108C0F8948C91209582236F
:101980008C93888182230AC0623051F4F8948C9140
:10199000322F309583238C938881822B888304C0D7
:1019A000F8948C91822B8C939FBFDF91CF910895F7
:1019B0000F931F93CF93DF931F92CDB7DEB7282FDE
:1019C00030E0F901EA5EFE4F8491F901E45AFE4FDE
:1019D0001491F901EE55FE4F04910023C1F08823C4
:1019E00019F0698359DF6981E02FF0E0EE0FFF1FE6
:1019F000EE5FFD4FA591B4919FB7F8948C91611162
:101A000003C01095812301C0812B8C939FBF0F9041
:101A1000DF91CF911F910F910895CF93DF93282FDE
:101A200030E0F901EA5EFE4F8491F901E45AFE4F7D
:101A3000D491F901EE55FE4FC491CC2389F0811168
:101A40002BDFEC2FF0E0EE0FFF1FE851FE4FA591CA
:101A5000B4912C912D2381E090E021F480E002C02C
:101A600080E090E0DF91CF9108950895A1E21A2ED1
:101A7000AA1BBB1BFD010DC0AA1FBB1FEE1FFF1F32
:101A8000A217B307E407F50720F0A21BB30BE40B82
:101A9000F50B661F771F881F991F1A9469F76095C9
:101AA0007095809590959B01AC01BD01CF01089583
:101AB000052E97FB16F400940FD057FD05D0D6DF06
:101AC00007FC02D046F408C050954095309521950A
:101AD0003F4F4F4F5F4F089590958095709561955A
:101AE0007F4F8F4F9F4F0895EE0FFF1F0590F4918A
:101AF000E02D19940790F691E02D1994F894FFCFFA
:101B0000000040001400540048656C6C6F202121D7
:101B1000210000000000C30497046C0474048704CF
:101B2000960400000000FC05640800000000F506B3
:0A1B300064084A0663065506D40651
:00000001FF
